{
  "_format": "hh-sol-artifact-1",
  "contractName": "IGIERC721",
  "sourceName": "contracts/IGIERC721.sol",
  "abi": [
    {
      "inputs": [
        {
          "internalType": "string",
          "name": "name",
          "type": "string"
        },
        {
          "internalType": "string",
          "name": "symbol",
          "type": "string"
        },
        {
          "internalType": "address",
          "name": "owner",
          "type": "address"
        },
        {
          "internalType": "address",
          "name": "marketplace",
          "type": "address"
        }
      ],
      "stateMutability": "nonpayable",
      "type": "constructor"
    },
    {
      "anonymous": false,
      "inputs": [
        {
          "indexed": true,
          "internalType": "address",
          "name": "owner",
          "type": "address"
        },
        {
          "indexed": true,
          "internalType": "address",
          "name": "approved",
          "type": "address"
        },
        {
          "indexed": true,
          "internalType": "uint256",
          "name": "tokenId",
          "type": "uint256"
        }
      ],
      "name": "Approval",
      "type": "event"
    },
    {
      "anonymous": false,
      "inputs": [
        {
          "indexed": true,
          "internalType": "address",
          "name": "owner",
          "type": "address"
        },
        {
          "indexed": true,
          "internalType": "address",
          "name": "operator",
          "type": "address"
        },
        {
          "indexed": false,
          "internalType": "bool",
          "name": "approved",
          "type": "bool"
        }
      ],
      "name": "ApprovalForAll",
      "type": "event"
    },
    {
      "anonymous": false,
      "inputs": [
        {
          "indexed": false,
          "internalType": "uint256",
          "name": "quantity",
          "type": "uint256"
        },
        {
          "indexed": false,
          "internalType": "string",
          "name": "skuPrefix",
          "type": "string"
        },
        {
          "indexed": false,
          "internalType": "uint32",
          "name": "royalty",
          "type": "uint32"
        },
        {
          "indexed": false,
          "internalType": "uint32",
          "name": "fee",
          "type": "uint32"
        },
        {
          "indexed": false,
          "internalType": "address",
          "name": "creator",
          "type": "address"
        },
        {
          "indexed": false,
          "internalType": "uint256",
          "name": "startTokenId",
          "type": "uint256"
        }
      ],
      "name": "BulkMinted",
      "type": "event"
    },
    {
      "anonymous": false,
      "inputs": [
        {
          "indexed": true,
          "internalType": "address",
          "name": "previousOwner",
          "type": "address"
        },
        {
          "indexed": true,
          "internalType": "address",
          "name": "newOwner",
          "type": "address"
        }
      ],
      "name": "OwnershipTransferred",
      "type": "event"
    },
    {
      "anonymous": false,
      "inputs": [
        {
          "indexed": true,
          "internalType": "address",
          "name": "from",
          "type": "address"
        },
        {
          "indexed": true,
          "internalType": "address",
          "name": "to",
          "type": "address"
        },
        {
          "indexed": true,
          "internalType": "uint256",
          "name": "tokenId",
          "type": "uint256"
        }
      ],
      "name": "Transfer",
      "type": "event"
    },
    {
      "inputs": [
        {
          "internalType": "address",
          "name": "to",
          "type": "address"
        },
        {
          "internalType": "uint256",
          "name": "tokenId",
          "type": "uint256"
        }
      ],
      "name": "approve",
      "outputs": [],
      "stateMutability": "nonpayable",
      "type": "function"
    },
    {
      "inputs": [
        {
          "internalType": "address",
          "name": "owner",
          "type": "address"
        }
      ],
      "name": "balanceOf",
      "outputs": [
        {
          "internalType": "uint256",
          "name": "",
          "type": "uint256"
        }
      ],
      "stateMutability": "view",
      "type": "function"
    },
    {
      "inputs": [
        {
          "internalType": "uint256",
          "name": "tokenId",
          "type": "uint256"
        }
      ],
      "name": "burn",
      "outputs": [],
      "stateMutability": "nonpayable",
      "type": "function"
    },
    {
      "inputs": [
        {
          "internalType": "uint256",
          "name": "tokenId",
          "type": "uint256"
        }
      ],
      "name": "getApproved",
      "outputs": [
        {
          "internalType": "address",
          "name": "",
          "type": "address"
        }
      ],
      "stateMutability": "view",
      "type": "function"
    },
    {
      "inputs": [],
      "name": "getContractOwner",
      "outputs": [
        {
          "internalType": "address",
          "name": "",
          "type": "address"
        }
      ],
      "stateMutability": "view",
      "type": "function"
    },
    {
      "inputs": [],
      "name": "getMarketplace",
      "outputs": [
        {
          "internalType": "address",
          "name": "",
          "type": "address"
        }
      ],
      "stateMutability": "view",
      "type": "function"
    },
    {
      "inputs": [
        {
          "internalType": "uint256",
          "name": "id",
          "type": "uint256"
        }
      ],
      "name": "getSaleId",
      "outputs": [
        {
          "internalType": "uint256",
          "name": "",
          "type": "uint256"
        }
      ],
      "stateMutability": "view",
      "type": "function"
    },
    {
      "inputs": [
        {
          "internalType": "uint256",
          "name": "id",
          "type": "uint256"
        }
      ],
      "name": "getSaleType",
      "outputs": [
        {
          "internalType": "enum IGIERC721.SaleType",
          "name": "",
          "type": "uint8"
        }
      ],
      "stateMutability": "view",
      "type": "function"
    },
    {
      "inputs": [
        {
          "internalType": "uint256",
          "name": "id",
          "type": "uint256"
        }
      ],
      "name": "getTokenCreator",
      "outputs": [
        {
          "internalType": "address",
          "name": "",
          "type": "address"
        }
      ],
      "stateMutability": "view",
      "type": "function"
    },
    {
      "inputs": [
        {
          "internalType": "uint256",
          "name": "id",
          "type": "uint256"
        }
      ],
      "name": "getTokenFee",
      "outputs": [
        {
          "internalType": "uint32",
          "name": "",
          "type": "uint32"
        }
      ],
      "stateMutability": "view",
      "type": "function"
    },
    {
      "inputs": [
        {
          "internalType": "uint256",
          "name": "id",
          "type": "uint256"
        }
      ],
      "name": "getTokenInfo",
      "outputs": [
        {
          "components": [
            {
              "internalType": "string",
              "name": "skuPrefix",
              "type": "string"
            },
            {
              "internalType": "uint256",
              "name": "skuId",
              "type": "uint256"
            },
            {
              "internalType": "uint32",
              "name": "royalty",
              "type": "uint32"
            },
            {
              "internalType": "uint32",
              "name": "fee",
              "type": "uint32"
            },
            {
              "internalType": "address",
              "name": "creator",
              "type": "address"
            },
            {
              "internalType": "enum IGIERC721.SaleType",
              "name": "saleType",
              "type": "uint8"
            },
            {
              "internalType": "uint256",
              "name": "saleId",
              "type": "uint256"
            }
          ],
          "internalType": "struct IGIERC721.TokenInfo",
          "name": "",
          "type": "tuple"
        }
      ],
      "stateMutability": "view",
      "type": "function"
    },
    {
      "inputs": [
        {
          "internalType": "uint256",
          "name": "id",
          "type": "uint256"
        }
      ],
      "name": "getTokenRoyalty",
      "outputs": [
        {
          "internalType": "uint32",
          "name": "",
          "type": "uint32"
        }
      ],
      "stateMutability": "view",
      "type": "function"
    },
    {
      "inputs": [
        {
          "internalType": "uint256",
          "name": "id",
          "type": "uint256"
        }
      ],
      "name": "getTokenSkuId",
      "outputs": [
        {
          "internalType": "uint256",
          "name": "",
          "type": "uint256"
        }
      ],
      "stateMutability": "view",
      "type": "function"
    },
    {
      "inputs": [
        {
          "internalType": "uint256",
          "name": "id",
          "type": "uint256"
        }
      ],
      "name": "getTokenSkuPrefix",
      "outputs": [
        {
          "internalType": "string",
          "name": "",
          "type": "string"
        }
      ],
      "stateMutability": "view",
      "type": "function"
    },
    {
      "inputs": [
        {
          "internalType": "address",
          "name": "candidate",
          "type": "address"
        }
      ],
      "name": "isAdmin",
      "outputs": [
        {
          "internalType": "bool",
          "name": "",
          "type": "bool"
        }
      ],
      "stateMutability": "view",
      "type": "function"
    },
    {
      "inputs": [
        {
          "internalType": "address",
          "name": "owner",
          "type": "address"
        },
        {
          "internalType": "address",
          "name": "operator",
          "type": "address"
        }
      ],
      "name": "isApprovedForAll",
      "outputs": [
        {
          "internalType": "bool",
          "name": "isOperator",
          "type": "bool"
        }
      ],
      "stateMutability": "view",
      "type": "function"
    },
    {
      "inputs": [
        {
          "internalType": "uint256",
          "name": "id",
          "type": "uint256"
        }
      ],
      "name": "isExist",
      "outputs": [
        {
          "internalType": "bool",
          "name": "",
          "type": "bool"
        }
      ],
      "stateMutability": "view",
      "type": "function"
    },
    {
      "inputs": [
        {
          "internalType": "address",
          "name": "proxyAddress",
          "type": "address"
        }
      ],
      "name": "isProxyList",
      "outputs": [
        {
          "internalType": "bool",
          "name": "",
          "type": "bool"
        }
      ],
      "stateMutability": "view",
      "type": "function"
    },
    {
      "inputs": [
        {
          "internalType": "uint256",
          "name": "quantity",
          "type": "uint256"
        },
        {
          "internalType": "string",
          "name": "skuPrefix",
          "type": "string"
        },
        {
          "internalType": "uint32",
          "name": "royalty",
          "type": "uint32"
        },
        {
          "internalType": "uint32",
          "name": "fee",
          "type": "uint32"
        },
        {
          "internalType": "address",
          "name": "creator",
          "type": "address"
        }
      ],
      "name": "mintBulk",
      "outputs": [],
      "stateMutability": "nonpayable",
      "type": "function"
    },
    {
      "inputs": [],
      "name": "name",
      "outputs": [
        {
          "internalType": "string",
          "name": "",
          "type": "string"
        }
      ],
      "stateMutability": "view",
      "type": "function"
    },
    {
      "inputs": [],
      "name": "owner",
      "outputs": [
        {
          "internalType": "address",
          "name": "",
          "type": "address"
        }
      ],
      "stateMutability": "view",
      "type": "function"
    },
    {
      "inputs": [
        {
          "internalType": "uint256",
          "name": "tokenId",
          "type": "uint256"
        }
      ],
      "name": "ownerOf",
      "outputs": [
        {
          "internalType": "address",
          "name": "",
          "type": "address"
        }
      ],
      "stateMutability": "view",
      "type": "function"
    },
    {
      "inputs": [
        {
          "internalType": "address",
          "name": "proxyAddress",
          "type": "address"
        }
      ],
      "name": "removeProxyList",
      "outputs": [],
      "stateMutability": "nonpayable",
      "type": "function"
    },
    {
      "inputs": [],
      "name": "renounceOwnership",
      "outputs": [],
      "stateMutability": "nonpayable",
      "type": "function"
    },
    {
      "inputs": [
        {
          "internalType": "address",
          "name": "from",
          "type": "address"
        },
        {
          "internalType": "address",
          "name": "to",
          "type": "address"
        },
        {
          "internalType": "uint256",
          "name": "tokenId",
          "type": "uint256"
        }
      ],
      "name": "safeTransferFrom",
      "outputs": [],
      "stateMutability": "nonpayable",
      "type": "function"
    },
    {
      "inputs": [
        {
          "internalType": "address",
          "name": "from",
          "type": "address"
        },
        {
          "internalType": "address",
          "name": "to",
          "type": "address"
        },
        {
          "internalType": "uint256",
          "name": "tokenId",
          "type": "uint256"
        },
        {
          "internalType": "bytes",
          "name": "_data",
          "type": "bytes"
        }
      ],
      "name": "safeTransferFrom",
      "outputs": [],
      "stateMutability": "nonpayable",
      "type": "function"
    },
    {
      "inputs": [
        {
          "internalType": "address",
          "name": "admin",
          "type": "address"
        }
      ],
      "name": "setAdmin",
      "outputs": [],
      "stateMutability": "nonpayable",
      "type": "function"
    },
    {
      "inputs": [
        {
          "internalType": "address",
          "name": "operator",
          "type": "address"
        },
        {
          "internalType": "bool",
          "name": "approved",
          "type": "bool"
        }
      ],
      "name": "setApprovalForAll",
      "outputs": [],
      "stateMutability": "nonpayable",
      "type": "function"
    },
    {
      "inputs": [
        {
          "internalType": "string",
          "name": "newBaseURI",
          "type": "string"
        }
      ],
      "name": "setBaseURI",
      "outputs": [],
      "stateMutability": "nonpayable",
      "type": "function"
    },
    {
      "inputs": [
        {
          "internalType": "address",
          "name": "market",
          "type": "address"
        }
      ],
      "name": "setMarketplace",
      "outputs": [],
      "stateMutability": "nonpayable",
      "type": "function"
    },
    {
      "inputs": [
        {
          "internalType": "address",
          "name": "proxyAddress",
          "type": "address"
        }
      ],
      "name": "setProxyList",
      "outputs": [],
      "stateMutability": "nonpayable",
      "type": "function"
    },
    {
      "inputs": [
        {
          "internalType": "uint256",
          "name": "id",
          "type": "uint256"
        },
        {
          "internalType": "uint256",
          "name": "saleId",
          "type": "uint256"
        }
      ],
      "name": "setSaleId",
      "outputs": [],
      "stateMutability": "nonpayable",
      "type": "function"
    },
    {
      "inputs": [
        {
          "internalType": "uint256",
          "name": "id",
          "type": "uint256"
        },
        {
          "internalType": "enum IGIERC721.SaleType",
          "name": "saleType",
          "type": "uint8"
        }
      ],
      "name": "setSaleType",
      "outputs": [],
      "stateMutability": "nonpayable",
      "type": "function"
    },
    {
      "inputs": [
        {
          "internalType": "uint256",
          "name": "id",
          "type": "uint256"
        },
        {
          "internalType": "uint32",
          "name": "fee",
          "type": "uint32"
        }
      ],
      "name": "setTokenFee",
      "outputs": [],
      "stateMutability": "nonpayable",
      "type": "function"
    },
    {
      "inputs": [
        {
          "internalType": "uint256",
          "name": "id",
          "type": "uint256"
        },
        {
          "internalType": "uint32",
          "name": "royalty",
          "type": "uint32"
        }
      ],
      "name": "setTokenRoyalty",
      "outputs": [],
      "stateMutability": "nonpayable",
      "type": "function"
    },
    {
      "inputs": [
        {
          "internalType": "bytes4",
          "name": "interfaceId",
          "type": "bytes4"
        }
      ],
      "name": "supportsInterface",
      "outputs": [
        {
          "internalType": "bool",
          "name": "",
          "type": "bool"
        }
      ],
      "stateMutability": "view",
      "type": "function"
    },
    {
      "inputs": [],
      "name": "symbol",
      "outputs": [
        {
          "internalType": "string",
          "name": "",
          "type": "string"
        }
      ],
      "stateMutability": "view",
      "type": "function"
    },
    {
      "inputs": [
        {
          "internalType": "uint256",
          "name": "tokenId",
          "type": "uint256"
        }
      ],
      "name": "tokenURI",
      "outputs": [
        {
          "internalType": "string",
          "name": "",
          "type": "string"
        }
      ],
      "stateMutability": "view",
      "type": "function"
    },
    {
      "inputs": [],
      "name": "totalSupply",
      "outputs": [
        {
          "internalType": "uint256",
          "name": "",
          "type": "uint256"
        }
      ],
      "stateMutability": "view",
      "type": "function"
    },
    {
      "inputs": [
        {
          "internalType": "address",
          "name": "from",
          "type": "address"
        },
        {
          "internalType": "address",
          "name": "to",
          "type": "address"
        },
        {
          "internalType": "uint256",
          "name": "tokenId",
          "type": "uint256"
        }
      ],
      "name": "transferFrom",
      "outputs": [],
      "stateMutability": "nonpayable",
      "type": "function"
    },
    {
      "inputs": [
        {
          "internalType": "address",
          "name": "newOwner",
          "type": "address"
        }
      ],
      "name": "transferOwnership",
      "outputs": [],
      "stateMutability": "nonpayable",
      "type": "function"
    }
  ],
  "bytecode": "0x60806040523480156200001157600080fd5b5060405162004ffc38038062004ffc833981810160405281019062000037919062000524565b838381600090805190602001906200005192919062000272565b5080600190805190602001906200006a92919062000272565b5050506200008d62000081620001a460201b60201c565b620001ac60201b60201c565b6200009e82620001ac60201b60201c565b80600960006101000a81548173ffffffffffffffffffffffffffffffffffffffff021916908373ffffffffffffffffffffffffffffffffffffffff16021790555081600860006101000a81548173ffffffffffffffffffffffffffffffffffffffff021916908373ffffffffffffffffffffffffffffffffffffffff1602179055506001600e6000600860009054906101000a900473ffffffffffffffffffffffffffffffffffffffff1673ffffffffffffffffffffffffffffffffffffffff1673ffffffffffffffffffffffffffffffffffffffff16815260200190815260200160002060006101000a81548160ff0219169083151502179055505050505062000639565b600033905090565b6000600660009054906101000a900473ffffffffffffffffffffffffffffffffffffffff16905081600660006101000a81548173ffffffffffffffffffffffffffffffffffffffff021916908373ffffffffffffffffffffffffffffffffffffffff1602179055508173ffffffffffffffffffffffffffffffffffffffff168173ffffffffffffffffffffffffffffffffffffffff167f8be0079c531659141344cd1fd0a4f28419497f9722a3daafe3b4186f6b6457e060405160405180910390a35050565b828054620002809062000603565b90600052602060002090601f016020900481019282620002a45760008555620002f0565b82601f10620002bf57805160ff1916838001178555620002f0565b82800160010185558215620002f0579182015b82811115620002ef578251825591602001919060010190620002d2565b5b509050620002ff919062000303565b5090565b5b808211156200031e57600081600090555060010162000304565b5090565b6000604051905090565b600080fd5b600080fd5b600080fd5b600080fd5b6000601f19601f8301169050919050565b7f4e487b7100000000000000000000000000000000000000000000000000000000600052604160045260246000fd5b6200038b8262000340565b810181811067ffffffffffffffff82111715620003ad57620003ac62000351565b5b80604052505050565b6000620003c262000322565b9050620003d0828262000380565b919050565b600067ffffffffffffffff821115620003f357620003f262000351565b5b620003fe8262000340565b9050602081019050919050565b60005b838110156200042b5780820151818401526020810190506200040e565b838111156200043b576000848401525b50505050565b6000620004586200045284620003d5565b620003b6565b9050828152602081018484840111156200047757620004766200033b565b5b620004848482856200040b565b509392505050565b600082601f830112620004a457620004a362000336565b5b8151620004b684826020860162000441565b91505092915050565b600073ffffffffffffffffffffffffffffffffffffffff82169050919050565b6000620004ec82620004bf565b9050919050565b620004fe81620004df565b81146200050a57600080fd5b50565b6000815190506200051e81620004f3565b92915050565b600080600080608085870312156200054157620005406200032c565b5b600085015167ffffffffffffffff81111562000562576200056162000331565b5b62000570878288016200048c565b945050602085015167ffffffffffffffff81111562000594576200059362000331565b5b620005a2878288016200048c565b9350506040620005b5878288016200050d565b9250506060620005c8878288016200050d565b91505092959194509250565b7f4e487b7100000000000000000000000000000000000000000000000000000000600052602260045260246000fd5b600060028204905060018216806200061c57607f821691505b60208210811415620006335762000632620005d4565b5b50919050565b6149b380620006496000396000f3fe608060405234801561001057600080fd5b50600436106102535760003560e01c8063715018a61161014657806391e1d152116100c3578063b88d4fde11610087578063b88d4fde1461072a578063c87b56dd14610746578063ca8f8ff314610776578063e985e9c5146107a6578063f2fde38b146107d6578063fb11a713146107f257610253565b806391e1d15214610674578063934689a9146106a457806395d89b41146106d4578063a22cb465146106f2578063a9c711711461070e57610253565b8063850665671161010a57806385066567146105be57806385d1131d146105da5780638a4624971461060a5780638c7a63ae146106265780638da5cb5b1461065657610253565b8063715018a61461051c57806373ad6c2d146105265780637ec5b14f146105425780638049ed0414610572578063833b7b781461058e57610253565b80633cefb8ff116101d457806355f804b31161019857806355f804b3146104545780636352211e14610470578063704b6c02146104a057806370a08231146104bc57806370be69c4146104ec57610253565b80633cefb8ff146103b25780633fc9a646146103e257806342842e0e146103fe57806342966c681461041a578063442890d51461043657610253565b80630d21bcd51161021b5780630d21bcd51461030e57806318160ddd1461032c5780631d8f94a61461034a57806323b872dd1461036657806324d7806c1461038257610253565b806301ffc9a71461025857806306fdde0314610288578063081812fc146102a657806308fb8292146102d6578063095ea7b3146102f2575b600080fd5b610272600480360381019061026d91906131ea565b610822565b60405161027f9190613232565b60405180910390f35b610290610904565b60405161029d91906132e6565b60405180910390f35b6102c060048036038101906102bb919061333e565b610996565b6040516102cd91906133ac565b60405180910390f35b6102f060048036038101906102eb9190613564565b610a1b565b005b61030c600480360381019061030791906135fb565b610cd3565b005b610316610deb565b60405161032391906133ac565b60405180910390f35b610334610e15565b604051610341919061364a565b60405180910390f35b610364600480360381019061035f919061368a565b610e6d565b005b610380600480360381019061037b91906136ca565b610f3f565b005b61039c6004803603810190610397919061371d565b610f9f565b6040516103a99190613232565b60405180910390f35b6103cc60048036038101906103c7919061333e565b610ff5565b6040516103d99190613759565b60405180910390f35b6103fc60048036038101906103f7919061371d565b611025565b005b610418600480360381019061041391906136ca565b6110fc565b005b610434600480360381019061042f919061333e565b61111c565b005b61043e611270565b60405161044b91906133ac565b60405180910390f35b61046e60048036038101906104699190613774565b61129a565b005b61048a6004803603810190610485919061333e565b611347565b60405161049791906133ac565b60405180910390f35b6104ba60048036038101906104b5919061371d565b6113f9565b005b6104d660048036038101906104d1919061371d565b6114d0565b6040516104e3919061364a565b60405180910390f35b6105066004803603810190610501919061333e565b611588565b604051610513919061364a565b60405180910390f35b6105246115a8565b005b610540600480360381019061053b919061371d565b611630565b005b61055c6004803603810190610557919061371d565b6116f0565b6040516105699190613232565b60405180910390f35b61058c6004803603810190610587919061371d565b6117c2565b005b6105a860048036038101906105a3919061333e565b611899565b6040516105b59190613759565b60405180910390f35b6105d860048036038101906105d391906137bd565b6118c9565b005b6105f460048036038101906105ef919061333e565b611978565b604051610601919061364a565b60405180910390f35b610624600480360381019061061f91906137fd565b611998565b005b610640600480360381019061063b919061333e565b611a64565b60405161064d91906139c7565b60405180910390f35b61065e611c14565b60405161066b91906133ac565b60405180910390f35b61068e6004803603810190610689919061333e565b611c3e565b60405161069b91906132e6565b60405180910390f35b6106be60048036038101906106b9919061333e565b611ce6565b6040516106cb91906133ac565b60405180910390f35b6106dc611d26565b6040516106e991906132e6565b60405180910390f35b61070c60048036038101906107079190613a15565b611db8565b005b610728600480360381019061072391906137fd565b611dce565b005b610744600480360381019061073f9190613af6565b611e9a565b005b610760600480360381019061075b919061333e565b611efc565b60405161076d91906132e6565b60405180910390f35b610790600480360381019061078b919061333e565b611fa3565b60405161079d9190613232565b60405180910390f35b6107c060048036038101906107bb9190613b79565b611fb5565b6040516107cd9190613232565b60405180910390f35b6107f060048036038101906107eb919061371d565b612025565b005b61080c6004803603810190610807919061333e565b61211d565b6040516108199190613bc8565b60405180910390f35b60007f80ac58cd000000000000000000000000000000000000000000000000000000007bffffffffffffffffffffffffffffffffffffffffffffffffffffffff1916827bffffffffffffffffffffffffffffffffffffffffffffffffffffffff191614806108ed57507f5b5e139f000000000000000000000000000000000000000000000000000000007bffffffffffffffffffffffffffffffffffffffffffffffffffffffff1916827bffffffffffffffffffffffffffffffffffffffffffffffffffffffff1916145b806108fd57506108fc8261214a565b5b9050919050565b60606000805461091390613c12565b80601f016020809104026020016040519081016040528092919081815260200182805461093f90613c12565b801561098c5780601f106109615761010080835404028352916020019161098c565b820191906000526020600020905b81548152906001019060200180831161096f57829003601f168201915b5050505050905090565b60006109a1826121b4565b6109e0576040517f08c379a00000000000000000000000000000000000000000000000000000000081526004016109d790613cb6565b60405180910390fd5b6004600083815260200190815260200160002060009054906101000a900473ffffffffffffffffffffffffffffffffffffffff169050919050565b60011515600e60003373ffffffffffffffffffffffffffffffffffffffff1673ffffffffffffffffffffffffffffffffffffffff16815260200190815260200160002060009054906101000a900460ff16151514610aae576040517f08c379a0000000000000000000000000000000000000000000000000000000008152600401610aa590613d22565b60405180910390fd5b60006001610abc600a612220565b610ac69190613d71565b905060005b86811015610c8957610add600a61222e565b6000610ae9600a612220565b9050610af58133612244565b6040518060e00160405280888152602001600184610b139190613d71565b81526020018763ffffffff1681526020018663ffffffff1681526020018573ffffffffffffffffffffffffffffffffffffffff168152602001600280811115610b5f57610b5e6138b4565b5b81526020016000815250600d60008381526020019081526020016000206000820151816000019080519060200190610b9892919061306a565b506020820151816001015560408201518160020160006101000a81548163ffffffff021916908363ffffffff16021790555060608201518160020160046101000a81548163ffffffff021916908363ffffffff16021790555060808201518160020160086101000a81548173ffffffffffffffffffffffffffffffffffffffff021916908373ffffffffffffffffffffffffffffffffffffffff16021790555060a082015181600201601c6101000a81548160ff02191690836002811115610c6357610c626138b4565b5b021790555060c08201518160030155905050508080610c8190613dc7565b915050610acb565b507f983242e08e69a78a668fac93fecd3f9ce7f04d8905253420f0ef2d182816b352868686868686604051610cc396959493929190613e10565b60405180910390a1505050505050565b6000610cde82611347565b90508073ffffffffffffffffffffffffffffffffffffffff168373ffffffffffffffffffffffffffffffffffffffff161415610d4f576040517f08c379a0000000000000000000000000000000000000000000000000000000008152600401610d4690613eea565b60405180910390fd5b8073ffffffffffffffffffffffffffffffffffffffff16610d6e612252565b73ffffffffffffffffffffffffffffffffffffffff161480610d9d5750610d9c81610d97612252565b611fb5565b5b610ddc576040517f08c379a0000000000000000000000000000000000000000000000000000000008152600401610dd390613f7c565b60405180910390fd5b610de6838361225a565b505050565b6000600960009054906101000a900473ffffffffffffffffffffffffffffffffffffffff16905090565b600080610e22600a612220565b9050600080600190505b828111610e6457610e3c816121b4565b15610e5157600182610e4e9190613d71565b91505b8080610e5c90613dc7565b915050610e2c565b50809250505090565b600960009054906101000a900473ffffffffffffffffffffffffffffffffffffffff1673ffffffffffffffffffffffffffffffffffffffff163373ffffffffffffffffffffffffffffffffffffffff1614610efd576040517f08c379a0000000000000000000000000000000000000000000000000000000008152600401610ef490613fe8565b60405180910390fd5b80600d6000848152602001908152602001600020600201601c6101000a81548160ff02191690836002811115610f3657610f356138b4565b5b02179055505050565b610f50610f4a612252565b82612313565b610f8f576040517f08c379a0000000000000000000000000000000000000000000000000000000008152600401610f869061407a565b60405180910390fd5b610f9a8383836123f1565b505050565b6000600e60008373ffffffffffffffffffffffffffffffffffffffff1673ffffffffffffffffffffffffffffffffffffffff16815260200190815260200160002060009054906101000a900460ff169050919050565b6000600d600083815260200190815260200160002060020160049054906101000a900463ffffffff169050919050565b61102d612252565b73ffffffffffffffffffffffffffffffffffffffff1661104b611c14565b73ffffffffffffffffffffffffffffffffffffffff16146110a1576040517f08c379a0000000000000000000000000000000000000000000000000000000008152600401611098906140e6565b60405180910390fd5b6000600c60008373ffffffffffffffffffffffffffffffffffffffff1673ffffffffffffffffffffffffffffffffffffffff16815260200190815260200160002060006101000a81548160ff02191690831515021790555050565b61111783838360405180602001604052806000815250611e9a565b505050565b60011515600e60003373ffffffffffffffffffffffffffffffffffffffff1673ffffffffffffffffffffffffffffffffffffffff16815260200190815260200160002060009054906101000a900460ff161515146111af576040517f08c379a00000000000000000000000000000000000000000000000000000000081526004016111a690613d22565b60405180910390fd5b6002808111156111c2576111c16138b4565b5b600d6000838152602001908152602001600020600201601c9054906101000a900460ff1660028111156111f8576111f76138b4565b5b14611238576040517f08c379a000000000000000000000000000000000000000000000000000000000815260040161122f90614152565b60405180910390fd5b6112418161264d565b6001600b600083815260200190815260200160002060006101000a81548160ff02191690831515021790555050565b6000600860009054906101000a900473ffffffffffffffffffffffffffffffffffffffff16905090565b60011515600e60003373ffffffffffffffffffffffffffffffffffffffff1673ffffffffffffffffffffffffffffffffffffffff16815260200190815260200160002060009054906101000a900460ff1615151461132d576040517f08c379a000000000000000000000000000000000000000000000000000000000815260040161132490613d22565b60405180910390fd5b806007908051906020019061134392919061306a565b5050565b6000806002600084815260200190815260200160002060009054906101000a900473ffffffffffffffffffffffffffffffffffffffff169050600073ffffffffffffffffffffffffffffffffffffffff168173ffffffffffffffffffffffffffffffffffffffff1614156113f0576040517f08c379a00000000000000000000000000000000000000000000000000000000081526004016113e7906141e4565b60405180910390fd5b80915050919050565b611401612252565b73ffffffffffffffffffffffffffffffffffffffff1661141f611c14565b73ffffffffffffffffffffffffffffffffffffffff1614611475576040517f08c379a000000000000000000000000000000000000000000000000000000000815260040161146c906140e6565b60405180910390fd5b6001600e60008373ffffffffffffffffffffffffffffffffffffffff1673ffffffffffffffffffffffffffffffffffffffff16815260200190815260200160002060006101000a81548160ff02191690831515021790555050565b60008073ffffffffffffffffffffffffffffffffffffffff168273ffffffffffffffffffffffffffffffffffffffff161415611541576040517f08c379a000000000000000000000000000000000000000000000000000000000815260040161153890614276565b60405180910390fd5b600360008373ffffffffffffffffffffffffffffffffffffffff1673ffffffffffffffffffffffffffffffffffffffff168152602001908152602001600020549050919050565b6000600d6000838152602001908152602001600020600301549050919050565b6115b0612252565b73ffffffffffffffffffffffffffffffffffffffff166115ce611c14565b73ffffffffffffffffffffffffffffffffffffffff1614611624576040517f08c379a000000000000000000000000000000000000000000000000000000000815260040161161b906140e6565b60405180910390fd5b61162e600061275e565b565b611638612252565b73ffffffffffffffffffffffffffffffffffffffff16611656611c14565b73ffffffffffffffffffffffffffffffffffffffff16146116ac576040517f08c379a00000000000000000000000000000000000000000000000000000000081526004016116a3906140e6565b60405180910390fd5b80600960006101000a81548173ffffffffffffffffffffffffffffffffffffffff021916908373ffffffffffffffffffffffffffffffffffffffff16021790555050565b60006116fa612252565b73ffffffffffffffffffffffffffffffffffffffff16611718611c14565b73ffffffffffffffffffffffffffffffffffffffff161461176e576040517f08c379a0000000000000000000000000000000000000000000000000000000008152600401611765906140e6565b60405180910390fd5b600c60008373ffffffffffffffffffffffffffffffffffffffff1673ffffffffffffffffffffffffffffffffffffffff16815260200190815260200160002060009054906101000a900460ff169050919050565b6117ca612252565b73ffffffffffffffffffffffffffffffffffffffff166117e8611c14565b73ffffffffffffffffffffffffffffffffffffffff161461183e576040517f08c379a0000000000000000000000000000000000000000000000000000000008152600401611835906140e6565b60405180910390fd5b6001600c60008373ffffffffffffffffffffffffffffffffffffffff1673ffffffffffffffffffffffffffffffffffffffff16815260200190815260200160002060006101000a81548160ff02191690831515021790555050565b6000600d600083815260200190815260200160002060020160009054906101000a900463ffffffff169050919050565b600960009054906101000a900473ffffffffffffffffffffffffffffffffffffffff1673ffffffffffffffffffffffffffffffffffffffff163373ffffffffffffffffffffffffffffffffffffffff1614611959576040517f08c379a000000000000000000000000000000000000000000000000000000000815260040161195090613fe8565b60405180910390fd5b80600d6000848152602001908152602001600020600301819055505050565b6000600d6000838152602001908152602001600020600101549050919050565b60011515600e60003373ffffffffffffffffffffffffffffffffffffffff1673ffffffffffffffffffffffffffffffffffffffff16815260200190815260200160002060009054906101000a900460ff16151514611a2b576040517f08c379a0000000000000000000000000000000000000000000000000000000008152600401611a2290613d22565b60405180910390fd5b80600d600084815260200190815260200160002060020160046101000a81548163ffffffff021916908363ffffffff1602179055505050565b611a6c6130f0565b600d60008381526020019081526020016000206040518060e0016040529081600082018054611a9a90613c12565b80601f0160208091040260200160405190810160405280929190818152602001828054611ac690613c12565b8015611b135780601f10611ae857610100808354040283529160200191611b13565b820191906000526020600020905b815481529060010190602001808311611af657829003601f168201915b50505050508152602001600182015481526020016002820160009054906101000a900463ffffffff1663ffffffff1663ffffffff1681526020016002820160049054906101000a900463ffffffff1663ffffffff1663ffffffff1681526020016002820160089054906101000a900473ffffffffffffffffffffffffffffffffffffffff1673ffffffffffffffffffffffffffffffffffffffff1673ffffffffffffffffffffffffffffffffffffffff16815260200160028201601c9054906101000a900460ff166002811115611bed57611bec6138b4565b5b6002811115611bff57611bfe6138b4565b5b81526020016003820154815250509050919050565b6000600660009054906101000a900473ffffffffffffffffffffffffffffffffffffffff16905090565b6060600d60008381526020019081526020016000206000018054611c6190613c12565b80601f0160208091040260200160405190810160405280929190818152602001828054611c8d90613c12565b8015611cda5780601f10611caf57610100808354040283529160200191611cda565b820191906000526020600020905b815481529060010190602001808311611cbd57829003601f168201915b50505050509050919050565b6000600d600083815260200190815260200160002060020160089054906101000a900473ffffffffffffffffffffffffffffffffffffffff169050919050565b606060018054611d3590613c12565b80601f0160208091040260200160405190810160405280929190818152602001828054611d6190613c12565b8015611dae5780601f10611d8357610100808354040283529160200191611dae565b820191906000526020600020905b815481529060010190602001808311611d9157829003601f168201915b5050505050905090565b611dca611dc3612252565b8383612824565b5050565b60011515600e60003373ffffffffffffffffffffffffffffffffffffffff1673ffffffffffffffffffffffffffffffffffffffff16815260200190815260200160002060009054906101000a900460ff16151514611e61576040517f08c379a0000000000000000000000000000000000000000000000000000000008152600401611e5890613d22565b60405180910390fd5b80600d600084815260200190815260200160002060020160006101000a81548163ffffffff021916908363ffffffff1602179055505050565b611eab611ea5612252565b83612313565b611eea576040517f08c379a0000000000000000000000000000000000000000000000000000000008152600401611ee19061407a565b60405180910390fd5b611ef684848484612991565b50505050565b6060611f07826121b4565b611f46576040517f08c379a0000000000000000000000000000000000000000000000000000000008152600401611f3d90614308565b60405180910390fd5b6000611f506129ed565b90506000815111611f705760405180602001604052806000815250611f9b565b80611f7a84612a7f565b604051602001611f8b929190614364565b6040516020818303038152906040525b915050919050565b6000611fae826121b4565b9050919050565b6000600c60008373ffffffffffffffffffffffffffffffffffffffff1673ffffffffffffffffffffffffffffffffffffffff16815260200190815260200160002060009054906101000a900460ff1615612012576001905061201f565b61201c8383612be0565b90505b92915050565b61202d612252565b73ffffffffffffffffffffffffffffffffffffffff1661204b611c14565b73ffffffffffffffffffffffffffffffffffffffff16146120a1576040517f08c379a0000000000000000000000000000000000000000000000000000000008152600401612098906140e6565b60405180910390fd5b600073ffffffffffffffffffffffffffffffffffffffff168173ffffffffffffffffffffffffffffffffffffffff161415612111576040517f08c379a0000000000000000000000000000000000000000000000000000000008152600401612108906143fa565b60405180910390fd5b61211a8161275e565b50565b6000600d6000838152602001908152602001600020600201601c9054906101000a900460ff169050919050565b60007f01ffc9a7000000000000000000000000000000000000000000000000000000007bffffffffffffffffffffffffffffffffffffffffffffffffffffffff1916827bffffffffffffffffffffffffffffffffffffffffffffffffffffffff1916149050919050565b60008073ffffffffffffffffffffffffffffffffffffffff166002600084815260200190815260200160002060009054906101000a900473ffffffffffffffffffffffffffffffffffffffff1673ffffffffffffffffffffffffffffffffffffffff1614159050919050565b600081600001549050919050565b6001816000016000828254019250508190555050565b61224e8183612c74565b5050565b600033905090565b816004600083815260200190815260200160002060006101000a81548173ffffffffffffffffffffffffffffffffffffffff021916908373ffffffffffffffffffffffffffffffffffffffff160217905550808273ffffffffffffffffffffffffffffffffffffffff166122cd83611347565b73ffffffffffffffffffffffffffffffffffffffff167f8c5be1e5ebec7d5bd14f71427d1e84f3dd0314c0f7b2291e5b200ac8c7c3b92560405160405180910390a45050565b600061231e826121b4565b61235d576040517f08c379a00000000000000000000000000000000000000000000000000000000081526004016123549061448c565b60405180910390fd5b600061236883611347565b90508073ffffffffffffffffffffffffffffffffffffffff168473ffffffffffffffffffffffffffffffffffffffff1614806123d757508373ffffffffffffffffffffffffffffffffffffffff166123bf84610996565b73ffffffffffffffffffffffffffffffffffffffff16145b806123e857506123e78185611fb5565b5b91505092915050565b8273ffffffffffffffffffffffffffffffffffffffff1661241182611347565b73ffffffffffffffffffffffffffffffffffffffff1614612467576040517f08c379a000000000000000000000000000000000000000000000000000000000815260040161245e9061451e565b60405180910390fd5b600073ffffffffffffffffffffffffffffffffffffffff168273ffffffffffffffffffffffffffffffffffffffff1614156124d7576040517f08c379a00000000000000000000000000000000000000000000000000000000081526004016124ce906145b0565b60405180910390fd5b6124e2838383612c92565b6124ed60008261225a565b6001600360008573ffffffffffffffffffffffffffffffffffffffff1673ffffffffffffffffffffffffffffffffffffffff168152602001908152602001600020600082825461253d91906145d0565b925050819055506001600360008473ffffffffffffffffffffffffffffffffffffffff1673ffffffffffffffffffffffffffffffffffffffff16815260200190815260200160002060008282546125949190613d71565b92505081905550816002600083815260200190815260200160002060006101000a81548173ffffffffffffffffffffffffffffffffffffffff021916908373ffffffffffffffffffffffffffffffffffffffff160217905550808273ffffffffffffffffffffffffffffffffffffffff168473ffffffffffffffffffffffffffffffffffffffff167fddf252ad1be2c89b69c2b068fc378daa952ba7f163c4a11628f55a4df523b3ef60405160405180910390a4505050565b600061265882611347565b905061266681600084612c92565b61267160008361225a565b6001600360008373ffffffffffffffffffffffffffffffffffffffff1673ffffffffffffffffffffffffffffffffffffffff16815260200190815260200160002060008282546126c191906145d0565b925050819055506002600083815260200190815260200160002060006101000a81549073ffffffffffffffffffffffffffffffffffffffff021916905581600073ffffffffffffffffffffffffffffffffffffffff168273ffffffffffffffffffffffffffffffffffffffff167fddf252ad1be2c89b69c2b068fc378daa952ba7f163c4a11628f55a4df523b3ef60405160405180910390a45050565b6000600660009054906101000a900473ffffffffffffffffffffffffffffffffffffffff16905081600660006101000a81548173ffffffffffffffffffffffffffffffffffffffff021916908373ffffffffffffffffffffffffffffffffffffffff1602179055508173ffffffffffffffffffffffffffffffffffffffff168173ffffffffffffffffffffffffffffffffffffffff167f8be0079c531659141344cd1fd0a4f28419497f9722a3daafe3b4186f6b6457e060405160405180910390a35050565b8173ffffffffffffffffffffffffffffffffffffffff168373ffffffffffffffffffffffffffffffffffffffff161415612893576040517f08c379a000000000000000000000000000000000000000000000000000000000815260040161288a90614650565b60405180910390fd5b80600560008573ffffffffffffffffffffffffffffffffffffffff1673ffffffffffffffffffffffffffffffffffffffff16815260200190815260200160002060008473ffffffffffffffffffffffffffffffffffffffff1673ffffffffffffffffffffffffffffffffffffffff16815260200190815260200160002060006101000a81548160ff0219169083151502179055508173ffffffffffffffffffffffffffffffffffffffff168373ffffffffffffffffffffffffffffffffffffffff167f17307eab39ab6107e8899845ad3d59bd9653f200f220920489ca2b5937696c31836040516129849190613232565b60405180910390a3505050565b61299c8484846123f1565b6129a884848484612c97565b6129e7576040517f08c379a00000000000000000000000000000000000000000000000000000000081526004016129de906146e2565b60405180910390fd5b50505050565b6060600780546129fc90613c12565b80601f0160208091040260200160405190810160405280929190818152602001828054612a2890613c12565b8015612a755780601f10612a4a57610100808354040283529160200191612a75565b820191906000526020600020905b815481529060010190602001808311612a5857829003601f168201915b5050505050905090565b60606000821415612ac7576040518060400160405280600181526020017f30000000000000000000000000000000000000000000000000000000000000008152509050612bdb565b600082905060005b60008214612af9578080612ae290613dc7565b915050600a82612af29190614731565b9150612acf565b60008167ffffffffffffffff811115612b1557612b146133d1565b5b6040519080825280601f01601f191660200182016040528015612b475781602001600182028036833780820191505090505b5090505b60008514612bd457600182612b6091906145d0565b9150600a85612b6f9190614762565b6030612b7b9190613d71565b60f81b818381518110612b9157612b90614793565b5b60200101907effffffffffffffffffffffffffffffffffffffffffffffffffffffffffffff1916908160001a905350600a85612bcd9190614731565b9450612b4b565b8093505050505b919050565b6000600560008473ffffffffffffffffffffffffffffffffffffffff1673ffffffffffffffffffffffffffffffffffffffff16815260200190815260200160002060008373ffffffffffffffffffffffffffffffffffffffff1673ffffffffffffffffffffffffffffffffffffffff16815260200190815260200160002060009054906101000a900460ff16905092915050565b612c8e828260405180602001604052806000815250612e2e565b5050565b505050565b6000612cb88473ffffffffffffffffffffffffffffffffffffffff16612e89565b15612e21578373ffffffffffffffffffffffffffffffffffffffff1663150b7a02612ce1612252565b8786866040518563ffffffff1660e01b8152600401612d039493929190614817565b602060405180830381600087803b158015612d1d57600080fd5b505af1925050508015612d4e57506040513d601f19601f82011682018060405250810190612d4b9190614878565b60015b612dd1573d8060008114612d7e576040519150601f19603f3d011682016040523d82523d6000602084013e612d83565b606091505b50600081511415612dc9576040517f08c379a0000000000000000000000000000000000000000000000000000000008152600401612dc0906146e2565b60405180910390fd5b805181602001fd5b63150b7a0260e01b7bffffffffffffffffffffffffffffffffffffffffffffffffffffffff1916817bffffffffffffffffffffffffffffffffffffffffffffffffffffffff191614915050612e26565b600190505b949350505050565b612e388383612e9c565b612e456000848484612c97565b612e84576040517f08c379a0000000000000000000000000000000000000000000000000000000008152600401612e7b906146e2565b60405180910390fd5b505050565b600080823b905060008111915050919050565b600073ffffffffffffffffffffffffffffffffffffffff168273ffffffffffffffffffffffffffffffffffffffff161415612f0c576040517f08c379a0000000000000000000000000000000000000000000000000000000008152600401612f03906148f1565b60405180910390fd5b612f15816121b4565b15612f55576040517f08c379a0000000000000000000000000000000000000000000000000000000008152600401612f4c9061495d565b60405180910390fd5b612f6160008383612c92565b6001600360008473ffffffffffffffffffffffffffffffffffffffff1673ffffffffffffffffffffffffffffffffffffffff1681526020019081526020016000206000828254612fb19190613d71565b92505081905550816002600083815260200190815260200160002060006101000a81548173ffffffffffffffffffffffffffffffffffffffff021916908373ffffffffffffffffffffffffffffffffffffffff160217905550808273ffffffffffffffffffffffffffffffffffffffff16600073ffffffffffffffffffffffffffffffffffffffff167fddf252ad1be2c89b69c2b068fc378daa952ba7f163c4a11628f55a4df523b3ef60405160405180910390a45050565b82805461307690613c12565b90600052602060002090601f01602090048101928261309857600085556130df565b82601f106130b157805160ff19168380011785556130df565b828001600101855582156130df579182015b828111156130de5782518255916020019190600101906130c3565b5b5090506130ec9190613161565b5090565b6040518060e001604052806060815260200160008152602001600063ffffffff168152602001600063ffffffff168152602001600073ffffffffffffffffffffffffffffffffffffffff16815260200160006002811115613154576131536138b4565b5b8152602001600081525090565b5b8082111561317a576000816000905550600101613162565b5090565b6000604051905090565b600080fd5b600080fd5b60007fffffffff0000000000000000000000000000000000000000000000000000000082169050919050565b6131c781613192565b81146131d257600080fd5b50565b6000813590506131e4816131be565b92915050565b600060208284031215613200576131ff613188565b5b600061320e848285016131d5565b91505092915050565b60008115159050919050565b61322c81613217565b82525050565b60006020820190506132476000830184613223565b92915050565b600081519050919050565b600082825260208201905092915050565b60005b8381101561328757808201518184015260208101905061326c565b83811115613296576000848401525b50505050565b6000601f19601f8301169050919050565b60006132b88261324d565b6132c28185613258565b93506132d2818560208601613269565b6132db8161329c565b840191505092915050565b6000602082019050818103600083015261330081846132ad565b905092915050565b6000819050919050565b61331b81613308565b811461332657600080fd5b50565b60008135905061333881613312565b92915050565b60006020828403121561335457613353613188565b5b600061336284828501613329565b91505092915050565b600073ffffffffffffffffffffffffffffffffffffffff82169050919050565b60006133968261336b565b9050919050565b6133a68161338b565b82525050565b60006020820190506133c1600083018461339d565b92915050565b600080fd5b600080fd5b7f4e487b7100000000000000000000000000000000000000000000000000000000600052604160045260246000fd5b6134098261329c565b810181811067ffffffffffffffff82111715613428576134276133d1565b5b80604052505050565b600061343b61317e565b90506134478282613400565b919050565b600067ffffffffffffffff821115613467576134666133d1565b5b6134708261329c565b9050602081019050919050565b82818337600083830152505050565b600061349f61349a8461344c565b613431565b9050828152602081018484840111156134bb576134ba6133cc565b5b6134c684828561347d565b509392505050565b600082601f8301126134e3576134e26133c7565b5b81356134f384826020860161348c565b91505092915050565b600063ffffffff82169050919050565b613515816134fc565b811461352057600080fd5b50565b6000813590506135328161350c565b92915050565b6135418161338b565b811461354c57600080fd5b50565b60008135905061355e81613538565b92915050565b600080600080600060a086880312156135805761357f613188565b5b600061358e88828901613329565b955050602086013567ffffffffffffffff8111156135af576135ae61318d565b5b6135bb888289016134ce565b94505060406135cc88828901613523565b93505060606135dd88828901613523565b92505060806135ee8882890161354f565b9150509295509295909350565b6000806040838503121561361257613611613188565b5b60006136208582860161354f565b925050602061363185828601613329565b9150509250929050565b61364481613308565b82525050565b600060208201905061365f600083018461363b565b92915050565b6003811061367257600080fd5b50565b60008135905061368481613665565b92915050565b600080604083850312156136a1576136a0613188565b5b60006136af85828601613329565b92505060206136c085828601613675565b9150509250929050565b6000806000606084860312156136e3576136e2613188565b5b60006136f18682870161354f565b93505060206137028682870161354f565b925050604061371386828701613329565b9150509250925092565b60006020828403121561373357613732613188565b5b60006137418482850161354f565b91505092915050565b613753816134fc565b82525050565b600060208201905061376e600083018461374a565b92915050565b60006020828403121561378a57613789613188565b5b600082013567ffffffffffffffff8111156137a8576137a761318d565b5b6137b4848285016134ce565b91505092915050565b600080604083850312156137d4576137d3613188565b5b60006137e285828601613329565b92505060206137f385828601613329565b9150509250929050565b6000806040838503121561381457613813613188565b5b600061382285828601613329565b925050602061383385828601613523565b9150509250929050565b600082825260208201905092915050565b60006138598261324d565b613863818561383d565b9350613873818560208601613269565b61387c8161329c565b840191505092915050565b61389081613308565b82525050565b61389f816134fc565b82525050565b6138ae8161338b565b82525050565b7f4e487b7100000000000000000000000000000000000000000000000000000000600052602160045260246000fd5b600381106138f4576138f36138b4565b5b50565b6000819050613905826138e3565b919050565b6000613915826138f7565b9050919050565b6139258161390a565b82525050565b600060e0830160008301518482036000860152613948828261384e565b915050602083015161395d6020860182613887565b5060408301516139706040860182613896565b5060608301516139836060860182613896565b50608083015161399660808601826138a5565b5060a08301516139a960a086018261391c565b5060c08301516139bc60c0860182613887565b508091505092915050565b600060208201905081810360008301526139e1818461392b565b905092915050565b6139f281613217565b81146139fd57600080fd5b50565b600081359050613a0f816139e9565b92915050565b60008060408385031215613a2c57613a2b613188565b5b6000613a3a8582860161354f565b9250506020613a4b85828601613a00565b9150509250929050565b600067ffffffffffffffff821115613a7057613a6f6133d1565b5b613a798261329c565b9050602081019050919050565b6000613a99613a9484613a55565b613431565b905082815260208101848484011115613ab557613ab46133cc565b5b613ac084828561347d565b509392505050565b600082601f830112613add57613adc6133c7565b5b8135613aed848260208601613a86565b91505092915050565b60008060008060808587031215613b1057613b0f613188565b5b6000613b1e8782880161354f565b9450506020613b2f8782880161354f565b9350506040613b4087828801613329565b925050606085013567ffffffffffffffff811115613b6157613b6061318d565b5b613b6d87828801613ac8565b91505092959194509250565b60008060408385031215613b9057613b8f613188565b5b6000613b9e8582860161354f565b9250506020613baf8582860161354f565b9150509250929050565b613bc28161390a565b82525050565b6000602082019050613bdd6000830184613bb9565b92915050565b7f4e487b7100000000000000000000000000000000000000000000000000000000600052602260045260246000fd5b60006002820490506001821680613c2a57607f821691505b60208210811415613c3e57613c3d613be3565b5b50919050565b7f4552433732313a20617070726f76656420717565727920666f72206e6f6e657860008201527f697374656e7420746f6b656e0000000000000000000000000000000000000000602082015250565b6000613ca0602c83613258565b9150613cab82613c44565b604082019050919050565b60006020820190508181036000830152613ccf81613c93565b9050919050565b7f4e6f7420612041646d696e000000000000000000000000000000000000000000600082015250565b6000613d0c600b83613258565b9150613d1782613cd6565b602082019050919050565b60006020820190508181036000830152613d3b81613cff565b9050919050565b7f4e487b7100000000000000000000000000000000000000000000000000000000600052601160045260246000fd5b6000613d7c82613308565b9150613d8783613308565b9250827fffffffffffffffffffffffffffffffffffffffffffffffffffffffffffffffff03821115613dbc57613dbb613d42565b5b828201905092915050565b6000613dd282613308565b91507fffffffffffffffffffffffffffffffffffffffffffffffffffffffffffffffff821415613e0557613e04613d42565b5b600182019050919050565b600060c082019050613e25600083018961363b565b8181036020830152613e3781886132ad565b9050613e46604083018761374a565b613e53606083018661374a565b613e60608083018561339d565b613e6d60a083018461363b565b979650505050505050565b7f4552433732313a20617070726f76616c20746f2063757272656e74206f776e6560008201527f7200000000000000000000000000000000000000000000000000000000000000602082015250565b6000613ed4602183613258565b9150613edf82613e78565b604082019050919050565b60006020820190508181036000830152613f0381613ec7565b9050919050565b7f4552433732313a20617070726f76652063616c6c6572206973206e6f74206f7760008201527f6e6572206e6f7220617070726f76656420666f7220616c6c0000000000000000602082015250565b6000613f66603883613258565b9150613f7182613f0a565b604082019050919050565b60006020820190508181036000830152613f9581613f59565b9050919050565b7f4e6f742066726f6d2061204d61726b6574706c61636500000000000000000000600082015250565b6000613fd2601683613258565b9150613fdd82613f9c565b602082019050919050565b6000602082019050818103600083015261400181613fc5565b9050919050565b7f4552433732313a207472616e736665722063616c6c6572206973206e6f74206f60008201527f776e6572206e6f7220617070726f766564000000000000000000000000000000602082015250565b6000614064603183613258565b915061406f82614008565b604082019050919050565b6000602082019050818103600083015261409381614057565b9050919050565b7f4f776e61626c653a2063616c6c6572206973206e6f7420746865206f776e6572600082015250565b60006140d0602083613258565b91506140db8261409a565b602082019050919050565b600060208201905081810360008301526140ff816140c3565b9050919050565b7f546f6b656e20616c7265616479206f6e20612073616c65000000000000000000600082015250565b600061413c601783613258565b915061414782614106565b602082019050919050565b6000602082019050818103600083015261416b8161412f565b9050919050565b7f4552433732313a206f776e657220717565727920666f72206e6f6e657869737460008201527f656e7420746f6b656e0000000000000000000000000000000000000000000000602082015250565b60006141ce602983613258565b91506141d982614172565b604082019050919050565b600060208201905081810360008301526141fd816141c1565b9050919050565b7f4552433732313a2062616c616e636520717565727920666f7220746865207a6560008201527f726f206164647265737300000000000000000000000000000000000000000000602082015250565b6000614260602a83613258565b915061426b82614204565b604082019050919050565b6000602082019050818103600083015261428f81614253565b9050919050565b7f4552433732314d657461646174613a2055524920717565727920666f72206e6f60008201527f6e6578697374656e7420746f6b656e0000000000000000000000000000000000602082015250565b60006142f2602f83613258565b91506142fd82614296565b604082019050919050565b60006020820190508181036000830152614321816142e5565b9050919050565b600081905092915050565b600061433e8261324d565b6143488185614328565b9350614358818560208601613269565b80840191505092915050565b60006143708285614333565b915061437c8284614333565b91508190509392505050565b7f4f776e61626c653a206e6577206f776e657220697320746865207a65726f206160008201527f6464726573730000000000000000000000000000000000000000000000000000602082015250565b60006143e4602683613258565b91506143ef82614388565b604082019050919050565b60006020820190508181036000830152614413816143d7565b9050919050565b7f4552433732313a206f70657261746f7220717565727920666f72206e6f6e657860008201527f697374656e7420746f6b656e0000000000000000000000000000000000000000602082015250565b6000614476602c83613258565b91506144818261441a565b604082019050919050565b600060208201905081810360008301526144a581614469565b9050919050565b7f4552433732313a207472616e73666572206f6620746f6b656e2074686174206960008201527f73206e6f74206f776e0000000000000000000000000000000000000000000000602082015250565b6000614508602983613258565b9150614513826144ac565b604082019050919050565b60006020820190508181036000830152614537816144fb565b9050919050565b7f4552433732313a207472616e7366657220746f20746865207a65726f2061646460008201527f7265737300000000000000000000000000000000000000000000000000000000602082015250565b600061459a602483613258565b91506145a58261453e565b604082019050919050565b600060208201905081810360008301526145c98161458d565b9050919050565b60006145db82613308565b91506145e683613308565b9250828210156145f9576145f8613d42565b5b828203905092915050565b7f4552433732313a20617070726f766520746f2063616c6c657200000000000000600082015250565b600061463a601983613258565b915061464582614604565b602082019050919050565b600060208201905081810360008301526146698161462d565b9050919050565b7f4552433732313a207472616e7366657220746f206e6f6e20455243373231526560008201527f63656976657220696d706c656d656e7465720000000000000000000000000000602082015250565b60006146cc603283613258565b91506146d782614670565b604082019050919050565b600060208201905081810360008301526146fb816146bf565b9050919050565b7f4e487b7100000000000000000000000000000000000000000000000000000000600052601260045260246000fd5b600061473c82613308565b915061474783613308565b92508261475757614756614702565b5b828204905092915050565b600061476d82613308565b915061477883613308565b92508261478857614787614702565b5b828206905092915050565b7f4e487b7100000000000000000000000000000000000000000000000000000000600052603260045260246000fd5b600081519050919050565b600082825260208201905092915050565b60006147e9826147c2565b6147f381856147cd565b9350614803818560208601613269565b61480c8161329c565b840191505092915050565b600060808201905061482c600083018761339d565b614839602083018661339d565b614846604083018561363b565b818103606083015261485881846147de565b905095945050505050565b600081519050614872816131be565b92915050565b60006020828403121561488e5761488d613188565b5b600061489c84828501614863565b91505092915050565b7f4552433732313a206d696e7420746f20746865207a65726f2061646472657373600082015250565b60006148db602083613258565b91506148e6826148a5565b602082019050919050565b6000602082019050818103600083015261490a816148ce565b9050919050565b7f4552433732313a20746f6b656e20616c7265616479206d696e74656400000000600082015250565b6000614947601c83613258565b915061495282614911565b602082019050919050565b600060208201905081810360008301526149768161493a565b905091905056fea2646970667358221220ed33ee493869e980dc1761eaee5add770d9d2795702a13217ceda4e7abfcf24164736f6c63430008090033",
  "linkReferences": {},
  "deployedLinkReferences": {}
}